:060000000A128A110C280F
:10000800FE00030EF1000A08F2000A128A11C8283D
:100018000A128A110F28F501F601F701F801830188
:100028000A128A1117280A128A117E200A128A11C6
:10003800831203139F182128222823289F1475034D
:10004800031D272828282D28831603130C13630063
:1000580035287508031D31283228352883160313DF
:100068000C177803031D39283A285128760883127B
:100078000313A0002008F30001300A128A11072197
:100088000A128A110D3083120313A100FB30A0005D
:10009800A00B4C28A10B4C28F80101300A128A1138
:1000A8001C210A128A1183120313880009140230D2
:1000B80083120313A2004530A100A930A000A00BB1
:1000C8006328A10B6328A20B63288312031309106A
:1000D800023083120313A2004530A100A930A0000A
:1000E800A00B7428A10B7428A20B74281C280A12D0
:1000F8008A110C280130831603178800890183169A
:1001080003138701831203138701831603138801DE
:1001180083120313880183160313890183120313BF
:100128008901831603130F088F3960388F000F1465
:10013800831203131F083F3940389F0083160313A7
:100148001F129F12C330831203139F0583160313D4
:100158009F13831203131F140D30F300F30BB228FF
:100168008316031381131514951415158B1516147E
:10017800961416150B10831203130C13831603130E
:100188000C170B178B170800831203130C1FCD28AD
:10019800CE28DF281F0CF000700C0F39003A031D21
:1001A800D628D728DD281E08F0007008F600760843
:1001B80087000C1300290B1CE228E32800290618E5
:1001C800E628E728EE287508031DEB28EC28EE281A
:1001D800F501F50A8618F128F228F8287503031D99
:1001E800F628F728F828F5010619FB28FC28FF2827
:1001F800F501F801F80A0B1072088A00710E8300E5
:10020800FE0E7E0E0900F4007408831203178D0099
:1002180073088C00831603178C130C158B13553039
:100228008D00AA308D008C140C110B108B17080050
:10023800F3007308831203178D00831603178C13BA
:0A0248000C14831203170C080800C1
:08400000FF3FFF3FFF3FFF3FC0
:04400E00D420FF3F7C
:00000001FF
